:020000040800F2
:1000000000C0002015260008AD100008B11000083F
:10001000B5100008B9100008BD100008000000006D
:10002000000000000000000000000000C1100008F7
:10003000C510000800000000C9100008CD1000081D
:100040005926000859260008592600085926000894
:100050005926000859260008592600085926000884
:100060005926000859260008592600085926000874
:100070005926000859260008592600085926000864
:100080005926000859260008592600085926000854
:100090005926000859260008592600085926000844
:1000A0005926000859260008592600085926000834
:1000B0005926000859260008592600085926000824
:1000C0005926000859260008592600085926000814
:1000D000592600080000000059260008592600088B
:1000E00059260008592600085926000859260008F4
:1000F00059260008592600085926000859260008E4
:1001000059260008592600085926000859260008D3
:1001100059260008592600085926000859260008C3
:1001200059260008592600085926000859260008B3
:1001400010B5054C237833B9044B13B10448AFF311
:1001500000800123237010BDC009002000000000B2
:1001600010630008084B10B51BB108490848AFF3ED
:1001700000800848036803B910BD074B002BFBD073
:10018000BDE81040184700BF00000000C40900206F
:1001900010630008C00900200000000000000000FB
:1001A000000000000000000000000000000000004F
:1001B000000000000000000000000000000000003F
:1001C00090F800F06DE9024520F007016FF0000C97
:1001D00010F0070491F820F040F049804FF000043F
:1001E0006FF00700D1E9002391F840F000F108001A
:1001F00082FA4CF2A4FA8CF283FA4CF3A2FA8CF352
:100200004BBBD1E9022382FA4CF200F10800A4FAB8
:100210008CF283FA4CF3A2FA8CF3E3B9D1E904230C
:1002200082FA4CF200F10800A4FA8CF283FA4CF343
:10023000A2FA8CF37BB9D1E9062301F1200182FAFD
:100240004CF200F10800A4FA8CF283FA4CF3A2FA03
:100250008CF3002BC6D0002A04BF04301A4612BA11
:10026000B2FA82F2FDE8024500EBD2007047D1E914
:10027000002304F00305C4F100004FEAC50514F0A3
:10028000040F91F840F00CFA05F562EA05021CBF74
:1002900063EA050362464FF00004A9E7000000008E
:1002A00001F0FF01102A2BDB10F0070F08D010F827
:1002B000013B013A8B422DD010F0070F42B3F6D12B
:1002C000F0B441EA012141EA014122F007047FF044
:1002D00000070023F0E80256083C85EA010586EA9B
:1002E000010685FA47F5A3FA87F586FA47F6A5FAD7
:1002F00087F68EB9EED1F0BC01F0FF0102F00702E3
:1003000032B110F8013B013A83EA010313B1F8D18D
:100310000020704701387047002D06BF354603386E
:10032000073815F0010F07D1013015F4807F02BFA7
:10033000013015F4C03F0130F0BC0138704700BFF8
:10034000844641EA000313F003036DD1403A41D3E0
:1003500051F8043B40F8043B51F8043B40F8043B9F
:1003600051F8043B40F8043B51F8043B40F8043B8F
:1003700051F8043B40F8043B51F8043B40F8043B7F
:1003800051F8043B40F8043B51F8043B40F8043B6F
:1003900051F8043B40F8043B51F8043B40F8043B5F
:1003A00051F8043B40F8043B51F8043B40F8043B4F
:1003B00051F8043B40F8043B51F8043B40F8043B3F
:1003C00051F8043B40F8043B51F8043B40F8043B2F
:1003D000403ABDD2303211D351F8043B40F8043BCF
:1003E00051F8043B40F8043B51F8043B40F8043B0F
:1003F00051F8043B40F8043B103AEDD20C3205D3DF
:1004000051F8043B40F8043B043AF9D2043208D0D6
:10041000D2071CBF11F8013B00F8013B01D30B8848
:1004200003806046704700BF082A13D38B078DD026
:1004300010F003038AD0C3F10403D21ADB071CBFF8
:1004400011F8013B00F8013B80D331F8023B20F862
:10045000023B7BE7043AD9D3013A11F8013B00F89B
:10046000013BF9D20B7803704B7843708B78837023
:100470006046704781F0004102E000BF83F0004316
:1004800030B54FEA41044FEA430594EA050F08BF2F
:1004900090EA020F1FBF54EA000C55EA020C7FEAF3
:1004A000645C7FEA655C00F0E2804FEA5454D4EB70
:1004B0005555B8BF6D420CDD2C4480EA020281EA3A
:1004C000030382EA000083EA010180EA020281EA72
:1004D0000303362D88BF30BD11F0004F4FEA0131C4
:1004E0004FF4801C4CEA113102D0404261EB4101D3
:1004F00013F0004F4FEA03334CEA133302D0524259
:1005000063EB430394EA050F00F0A780A4F1010414
:10051000D5F1200E0DDB02FA0EFC22FA05F280184E
:1005200041F1000103FA0EF2801843FA05F3594134
:100530000EE0A5F120050EF1200E012A03FA0EFCB3
:1005400028BF4CF0020C43FA05F3C01851EBE371DD
:1005500001F0004507D54FF0000EDCF1000C7EEBFA
:1005600000006EEB0101B1F5801F1BD3B1F5001F38
:100570000CD349085FEA30004FEA3C0C04F1010457
:100580004FEA445212F5800F80F09A80BCF1004F80
:1005900008BF5FEA500C50F1000041EB045141EA02
:1005A000050130BD5FEA4C0C404141EB010111F403
:1005B000801FA4F10104E9D191F0000F04BF0146AE
:1005C0000020B1FA81F308BF2033A3F10B03B3F18C
:1005D00020020CDA0C3208DD02F1140CC2F10C021C
:1005E00001FA0CF021FA02F10CE002F11402D8BF7A
:1005F000C2F1200C01FA02F120FA0CFCDCBF41EA46
:100600000C019040E41AA2BF01EB0451294330BD14
:100610006FEA04041F3C1CDA0C340EDC04F11404F1
:10062000C4F1200220FA04F001FA02F340EA0300C8
:1006300021FA04F345EA030130BDC4F10C04C4F10E
:10064000200220FA02F001FA04F340EA03002946EE
:1006500030BD21FA04F0294630BD94F0000F83F438
:10066000801306BF81F480110134013D4EE77FEA1B
:10067000645C18BF7FEA655C29D094EA050F08BF67
:1006800090EA020F05D054EA000C04BF1946104648
:1006900030BD91EA030F1EBF0021002030BD5FEA8C
:1006A000545C05D14000494128BF41F0004130BDB4
:1006B00014F580043CBF01F5801130BD01F0004508
:1006C00045F0FE4141F470014FF0000030BD7FEA7B
:1006D000645C1ABF194610467FEA655C1CBF0B4676
:1006E000024650EA013406BF52EA033591EA030F8D
:1006F00041F4002130BD00BF90F0000F04BF002185
:10070000704730B54FF4806404F132044FF00005B7
:100710004FF0000150E700BF90F0000F04BF002130
:10072000704730B54FF4806404F1320410F0004596
:1007300048BF40424FF000013EE700BF42004FEA91
:10074000E2014FEA31014FEA02701FBF12F07F430E
:1007500093F07F4F81F06051704792F0000F14BF0B
:1007600093F07F4F704730B54FF4607401F000454F
:1007700021F0004120E700BF50EA010208BF7047A6
:1007800030B54FF000050AE050EA010208BF70479B
:1007900030B511F0004502D5404261EB41014FF404
:1007A000806404F132045FEA915C3FF4DCAE4FF008
:1007B00003025FEADC0C18BF03325FEADC0C18BFEF
:1007C000033202EBDC02C2F1200300FA03FC20FA40
:1007D00002F001FA03FE40EA0E0021FA02F114448D
:1007E000C1E600BF70B54FF0FF0C4CF4E06C1CEAA2
:1007F00011541DBF1CEA135594EA0C0F95EA0C0F17
:1008000000F0DEF82C4481EA030621EA4C5123EA89
:100810004C5350EA013518BF52EA033541F48011B8
:1008200043F4801338D0A0FB02CE4FF00005E1FB6B
:1008300002E506F00042E0FB03E54FF00006E1FBB5
:1008400003569CF0000F18BF4EF0010EA4F1FF04F8
:10085000B6F5007F64F5407404D25FEA4E0E6D4138
:1008600046EB060642EAC62141EA55514FEAC52049
:1008700040EA5E504FEACE2EB4F1FD0C88BFBCF5C5
:10088000E06F1ED8BEF1004F08BF5FEA500E50F176
:10089000000041EB045170BD06F0004646EA01013C
:1008A00040EA020081EA0301B4EB5C04C2BFD4EB6E
:1008B0000C0541EA045170BD41F480114FF0000E67
:1008C000013C00F3AB8014F1360FDEBF002001F0D5
:1008D000004170BDC4F10004203C35DA0C341BDC4F
:1008E00004F11404C4F1200500FA05F320FA04F021
:1008F00001FA05F240EA020001F0004221F0004155
:1009000010EBD37021FA04F642EB06015EEA430EC7
:1009100008BF20EAD37070BDC4F10C04C4F12005F7
:1009200000FA04F320FA05F001FA04F240EA0200AA
:1009300001F0004110EBD37041F100015EEA430E7B
:1009400008BF20EAD37070BDC4F1200500FA05F29B
:100950004EEA020E20FA04F301FA05F243EA02031A
:1009600021FA04F001F0004121FA04F220EA020029
:1009700000EBD3705EEA430E08BF20EAD37070BD6F
:1009800094F0000F0FD101F00046400041EB01014F
:1009900011F4801F08BF013CF7D041EA060195F031
:1009A000000F18BF704703F00046520043EB0303EB
:1009B00013F4801F08BF013DF7D043EA06037047D8
:1009C00094EA0C0F0CEA135518BF95EA0C0F0CD0E3
:1009D00050EA410618BF52EA4306D1D181EA030129
:1009E00001F000414FF0000070BD50EA410606BF23
:1009F0001046194652EA430619D094EA0C0F02D168
:100A000050EA013613D195EA0C0F05D152EA0336AC
:100A10001CBF104619460AD181EA030101F00041CA
:100A200041F0FE4141F470014FF0000070BD41F013
:100A3000FE4141F4780170BD70B54FF0FF0C4CF4ED
:100A4000E06C1CEA11541DBF1CEA135594EA0C0F0C
:100A500095EA0C0F00F0A7F8A4EB050481EA030E59
:100A600052EA03354FEA013100F088804FEA033340
:100A70004FF0805545EA131343EA12634FEA02220E
:100A800045EA111545EA10654FEA00260EF00041CF
:100A90009D4208BF964244F1FD0404F5407402D221
:100AA0005B084FEA3202B61A65EB03055B084FEAB2
:100AB00032024FF480104FF4002CB6EB020E75EBAF
:100AC000030E22BFB61A754640EA0C005B084FEAD7
:100AD0003202B6EB020E75EB030E22BFB61A754654
:100AE00040EA5C005B084FEA3202B6EB020E75EB9F
:100AF000030E22BFB61A754640EA9C005B084FEA17
:100B00003202B6EB020E75EB030E22BFB61A754623
:100B100040EADC0055EA060E18D04FEA051545EA12
:100B200016754FEA06164FEAC30343EA52734FEABB
:100B3000C2025FEA1C1CC0D111F4801F0BD141EA34
:100B400000014FF000004FF0004CB6E711F4801F99
:100B500004BF01430020B4F1FD0C88BFBCF5E06F79
:100B60003FF6AFAEB5EB030C04BFB6EB020C5FEA89
:100B7000500C50F1000041EB045170BD0EF0004EDE
:100B80004EEA113114EB5C04C2BFD4EB0C0541EA10
:100B9000045170BD41F480114FF0000E013C90E60D
:100BA00045EA060E8DE60CEA135594EA0C0F08BFD1
:100BB00095EA0C0F3FF43BAF94EA0C0F0AD150EAD0
:100BC00001347FF434AF95EA0C0F7FF425AF104663
:100BD00019462CE795EA0C0F06D152EA03353FF48B
:100BE000FDAE1046194622E750EA410618BF52EA08
:100BF00043067FF4C5AE50EA41047FF40DAF52EADC
:100C000043057FF4EBAE12E74FF0FF3C06E000BF78
:100C10004FF0010C02E000BF4FF0010C4DF804CD85
:100C20004FEA410C7FEA6C5C4FEA430C18BF7FEA45
:100C30006C5C1BD001B050EA410C0CBF52EA430C73
:100C400091EA030F02BF90EA020F0020704710F1F3
:100C5000000F91EA030F58BF994208BF90422CBF82
:100C6000D8176FEAE37040F0010070474FEA410C7B
:100C70007FEA6C5C02D150EA013C07D14FEA430C99
:100C80007FEA6C5CD6D152EA033CD3D05DF8040B0A
:100C9000704700BF8446104662468C46194663463C
:100CA00000E000BF01B5FFF7B7FF002848BF10F113
:100CB000000F01BD4DF808EDFFF7F4FF0CBF012058
:100CC00000205DF808FB00BF4DF808EDFFF7EAFFD4
:100CD00034BF012000205DF808FB00BF4DF808ED8F
:100CE000FFF7E0FF94BF012000205DF808FB00BF84
:100CF0004DF808EDFFF7CEFF94BF012000205DF80E
:100D000008FB00BF4DF808EDFFF7C4FF34BF01201A
:100D100000205DF808FB00BF4FEA410C7FEA6C5CE5
:100D200002D150EA013C0AD14FEA430C7FEA6C5CE5
:100D300002D152EA033C02D14FF0000070474FF05D
:100D4000010070474FEA410212F5001215D211D589
:100D50006FF47873B3EB625212D94FEAC12343F0B8
:100D6000004343EA505311F0004F23FA02F018BF3A
:100D7000404270474FF00000704750EA013005D103
:100D800011F0004008BF6FF0004070474FF00000C6
:100D9000704700BF53B94AB9002908BF00281CBFDB
:100DA0004FF0FF314FF0FF3000F07EB9ADF1080C8D
:100DB0006DE904CE00F006F8DDF804E0DDE9022379
:100DC00004B070472DE9F0478C460E460446089D56
:100DD000002B50D18A4217466CD9B2FA82FEBEF17E
:100DE000000F0BD0CEF1200420FA04F401FA0EF625
:100DF00044EA060C02FA0EF700FA0EF44FEA17491D
:100E0000220CBCFBF9F01FFA87F809FB10C642EA76
:100E1000064600FB08F3B34209D9F61900F1FF3288
:100E200080F02281B34240F21F8102383E44F61A1C
:100E3000A2B2B6FBF9F309FB136642EA064403FBD0
:100E400008F8A04509D9E41903F1FF3280F00A81BE
:100E5000A04540F20781023B3C44C8EB040443EA4E
:100E600000400021002D62D024FA0EF400232C60F3
:100E70006B60BDE8F0878B4207D9002D55D000216B
:100E800085E841000846BDE8F087B3FA83F1002900
:100E900040F09080B34202D3824200F2F880841A7C
:100EA00066EB03060120B446002D40D085E8101003
:100EB000BDE8F08712B90127B7FBF2F7B7FA87FE52
:100EC000BEF1000F35D1F31B4FEA17481FFA87FC1C
:100ED0000121B3FBF8F0220C08FB103642EA06466B
:100EE0000CFB00F3B34207D9F61900F1FF3202D22E
:100EF000B34200F2CE801046F61AA2B2B6FBF8F367
:100F000008FB136642EA06440CFB03FCA44507D920
:100F1000E41903F1FF3202D2A44500F2B580134672
:100F2000CCEB040443EA00409CE729462846BDE890
:100F3000F087CEF1200106FA0EF307FA0EF720FA39
:100F400001F94FEA1748CE4049EA0309B6FBF8FA1F
:100F50004FEA194408FB1A661FFA87FC44EA064365
:100F60000AFB0CF29A4200FA0EF40AD9DB190AF1D4
:100F7000FF3180F087809A4240F28480AAF1020A11
:100F80003B449B1A1FFA89F9B3FBF8F108FB1133B4
:100F900049EA034301FB0CF69E4207D9DB1901F134
:100FA000FF326BD29E4269D902393B449B1B41EA16
:100FB0000A418EE7C1F1200E22FA0EF48B40234342
:100FC00020FA0EF706FA01F44FEA134C26FA0EF651
:100FD0003C43B6FBFCF9270C0CFB19661FFA83F89F
:100FE00047EA064609FB08F7B74202FA01F200FA9F
:100FF00001FA08D9F61809F1FF3041D2B7423FD9BA
:10100000A9F102091E44F61BA0B2B6FBFCF40CFBCE
:10101000146640EA064704FB08F8B84507D9FF18EC
:1010200004F1FF3028D2B84526D9023C1F4444EAD7
:101030000940C8EB0707A0FB02894F4544464E46CE
:1010400014D329D065B3BAEB040367EB060707FA9C
:101050000EFECB40CF404EEA030385E88800002116
:10106000BDE8F0871346F8E61046E0E6B8EB020468
:1010700069EB03060138E5E70446D8E7114695E732
:101080008146C0E78A467CE7023B3C4448E7084685
:101090000AE702383E442FE7C245E7D33E46D1E790
:1010A0002946BDE8F08700BF704700BF704700BF0A
:1010B000FEE700BFFEE700BFFEE700BFFEE700BFA0
:1010C000704700BF704700BF704700BF08B500F011
:1010D000A1FF08BD2DE9F047B4B000F0A5FF002046
:1010E00000F09EFE012000F09BFE022000F098FE22
:1010F000032000F095FE042000F092FE052000F091
:101100008FFE062000F08CFE072000F089FE0820EC
:1011100000F086FE092000F083FE0A2000F080FE29
:101120000B2000F07DFE0C2000F07AFE0D2000F078
:1011300077FE0E2000F074FE0F2000F071FE4FF0DD
:1011400005098DF8889000248DF8894001212298A6
:1011500000F084FFD54D2E4636F8048BADF88C8018
:101160000121239800F07AFFB6F800A0ADF890A016
:101170000121249800F072FF2F89ADF894700121AD
:10118000259800F06BFFAE89ADF898600121269894
:1011900000F064FF2D8AADF89C500121279800F0E3
:1011A0005DFF8DF8A0908DF8A1400121289800F0F6
:1011B00087FFADF8A4800121299800F081FFADF8E8
:1011C000A8A001212A9800F07BFFADF8AC700121A6
:1011D0002B9800F075FFADF8B06021462C9800F018
:1011E0006FFFADF8B45021462D9800F069FF00F074
:1011F000DDFE00F0E1FD00944FF47A7322462146B3
:10120000204600F097FF204600F070FE012000F01D
:101210006DFE40F69A11204600F0B4FE4FF48C614A
:10122000012000F0AFFE4FF47A7000F0E5FE80255B
:101230002A46002102A801F011FA002000F034FE35
:1012400002469B4902A801F057FA02A800F0A2FD4D
:10125000984C204600F09EFD2A46002102A801F08D
:10126000FDF9012000F020FE0246934902A801F09A
:1012700043FA02A800F08EFD204600F08BFD2A46BE
:10128000002102A801F0EAF9022000F00DFE02465A
:101290008A4902A801F030FA02A800F07BFD20463E
:1012A00000F078FD2A46002102A801F0D7F90320BA
:1012B00000F0FAFD0246824902A801F01DFA02A8D8
:1012C00000F068FD204600F065FD2A46002102A8D6
:1012D00001F0C4F9042000F0E7FD0246794902A8B4
:1012E00001F00AFA02A800F055FD204600F052FD78
:1012F0002A46002102A801F0B1F9052000F0D4FD32
:101300000246714902A801F0F7F902A800F042FD77
:10131000204600F03FFD2A46002102A801F09EF978
:10132000062000F0C1FD0246684902A801F0E4F978
:1013300002A800F02FFD204600F02CFD2A460021D7
:1013400002A801F08BF9072000F0AEFD02466049CB
:1013500002A801F0D1F902A800F01CFD204600F01F
:1013600019FD2A46002102A801F078F9082000F0B2
:101370009BFD0246574902A801F0BEF902A800F001
:1013800009FD204600F006FD2A46002102A801F0D2
:1013900065F9092000F088FD02464F4902A801F0D6
:1013A000ABF902A800F0F6FC204600F0F3FC2A4658
:1013B000002102A801F052F90A2000F075FD024652
:1013C000464902A801F098F902A800F0E3FC204683
:1013D00000F0E0FC2A46002102A801F03FF90B20B2
:1013E00000F062FD02463E4902A801F085F902A81C
:1013F00000F0D0FC204600F0CDFC2A46002102A8D7
:1014000001F02CF90C2000F04FFD0246354902A8EE
:1014100001F072F902A800F0BDFC204600F0BAFC11
:101420002A46002102A801F019F90D2000F03CFD28
:1014300002462D4902A801F05FF902A800F0AAFCBB
:10144000204600F0A7FC2A46002102A801F006F978
:101450000E2000F029FD0246244902A801F04CF9B3
:1014600002A800F097FC204600F094FC2A460021D8
:1014700002A801F0F3F80E2000F016FD02461C4908
:1014800002A801F039F902A800F084FC204600F01F
:1014900081FC064CA389ADF8B8302E9800F02EFEE2
:1014A000238AADF8BC302F9824E000BF28630008E1
:1014B00054630008686300086C63000880630008D8
:1014C00094630008A8630008BC630008D0630008A8
:1014D000E4630008F86300080C6400082064000856
:1014E00034640008486400085C6400087064000804
:1014F0008464000800F002FE05238DF8C03000234C
:101500008DF8C130309800F0F9FD254635F8043BE0
:10151000ADF8C430319800F0F1FD2B88ADF8C8303B
:10152000329800F0EBFD2389ADF8CC30339800F011
:10153000E5FD78E6304A136843F0010313600023A9
:1015400001332D4A126812F0020F02D1B3F5A06FD9
:10155000F6D1294B1B6813F0020F00D1FEE7274A92
:10156000136843F080531360254A136843F44043E3
:101570001360244B1A681A601A681A601A6842F4D9
:1015800080621A601A6822F0904222F470121A6087
:101590001A6842F0036242F480221A60164A136805
:1015A00043F080731360144B1B6813F0007FFAD074
:1015B000134A136843F480331360134B1B6813F40E
:1015C000803FFAD00E4A136843F4003313600E4B89
:1015D0001B6813F4003FFAD00A4B1A6822F003028A
:1015E0001A601A6842F002021A60064B1B6813F078
:1015F000080FFAD0704700BF001002401C100240D4
:1016000000700040041002400470004008B5FFF76D
:1016100091FF08BD00B583B0164A136843F001037B
:1016200013600432136843F08003136000230193B6
:1016300002E0019B01330193019A44F61F639A4231
:10164000F7D900230C4A1360283213602C3A136830
:1016500023F0847323F4803313604FF41F01074B8E
:101660001960136823F480231360FFF7CFFF03B0E2
:101670005DF804FB00100240041002400810024014
:10168000836813F0010F03D1836843F00103836083
:10169000704700BF00F10803826842F008028260D0
:1016A0001A6812F0080FFBD1826842F004028260CF
:1016B0001A6812F0040FFBD1704700BF044B1A6880
:1016C00022F470221A601A6810431860704700BF35
:1016D00004240140AAB111F4807F03D0436843F48D
:1016E0008073436011F4806F03D0436843F48063D8
:1016F000436011F0020F19D0836843F00203836046
:10170000704711F4807F03D0436823F480734360F3
:1017100011F4806F03D0436823F48063436011F0B9
:10172000020F03D0836823F002038360704700BF79
:1017300021B1836843F4006383607047836823F4B6
:1017400000638360704700BF012902D002290CD0DA
:101750007047C36A23F47003C362C36A013A120577
:1017600002F470021A43C2627047836B23F4401381
:101770008363836B013A120502F440121A438263B9
:10178000704700BF30B4846BC4F30154856B611A99
:1017900001EB8101C1F10F011F248C4025EA0405F2
:1017A00002FA01F129438163092A0BD8046902EB8B
:1017B00042020721914024EA010103FA02F20A439E
:1017C00002610DE0112A0BD8C46802EB42021E3AF6
:1017D0000721914024EA010103FA02F20A43C260A0
:1017E00030BC704772B111F0010F03D0836843F42D
:1017F0008013836011F0020F12D0836843F400431A
:101800008360704711F0010F03D0836823F48013C5
:10181000836011F0020F03D0836823F400438360D8
:10182000704700BF012902D0022908D070478368A1
:1018300023F46023836083681A438260704783685F
:1018400023F4E043836083681A438260704700BFDB
:1018500011F0010F03D0836843F48003836011F01B
:10186000020F03D0836843F400138360704700BF06
:1018700003680B4201D1002070470120704700BF70
:10188000036823EA01010160704700BF28B9064AD6
:10189000136843F0010313607047034A136843F46D
:1018A00080331360704700BF0074004028B9064AB7
:1018B000136823F0020313607047034A136823F48C
:1018C00000331360704700BF0074004028B9064A17
:1018D000136823F0040313607047034A136823F46A
:1018E00080231360704700BF0074004040B9094B6B
:1018F0001A6822F0C0021A601A6811431960704712
:10190000044B1A6822F440021A601A6842EA014144
:10191000196070470074004070B9012906D011B1F8
:10192000022906D070470C4B1A6070470B4B1A60A7
:1019300070470B4B1A607047012906D011B102297C
:1019400006D07047074B1A607047074B1A60704704
:10195000064B1A60704700BF087400400C740040CA
:101960001074004014740040187400401C7400404F
:10197000F0B401F00F0511F0100F08D0042A05D1C2
:1019800045F00305C26B1A43C26300E01543002211
:1019900016E001249440234210D0076894000F26DB
:1019A000A64027EA060605FA04F43443282901D1A3
:1019B000436102E0482900D103610460013292B220
:1019C000072AE6D9082219E001249440234213D0C3
:1019D000476802F18044083CA4000F26A64027EA8D
:1019E000060605FA04F43443282901D1436102E0D4
:1019F000482900D103614460013292B20F2AE3D931
:101A0000F0BC70470AB1016170474161704700BF87
:101A100083680B4201D0012070470020704700BF4F
:101A2000830903F1804303F50433196800F01F00B4
:101A3000012202FA00F0084318607047830903F19D
:101A4000804303F50433196800F01F00012202FAF5
:101A500000F0084318607047830903F1804303F5E1
:101A600004331A6800F01F00012101FA00F022EA95
:101A700000001860704700BF144B1B6823F08053B0
:101A800023F44043124A126822F000520B2817D860
:101A9000DFE800F0060606061609160910101010F9
:101AA00043EA80330CE00B4901EA8030034343F002
:101AB000805305E0084901EA8030034342F00052B8
:101AC00002490B60024B1A60704700BF04100240CD
:101AD0002C10024000C0FEFF00C0FCFF70B489B0B3
:101AE00006463B4C04AD20686168A268E3680FC5F8
:101AF00002AB54F8100F616803C36B4603C3354B48
:101B00001B68C3F38103022B34D1324B1B6803F4EF
:101B100080336BB1304B1B6813F0804F01D12F48DD
:101B200000E02F482B4B1B6803F400331BB101E08E
:101B30002C4800E02B48274A1368C3F383431268FC
:101B400012F0006F01D043F01003224A126812F025
:101B5000804F01D043F020030E2B01D8023306E062
:101B6000A3F10F022F2A01D8013300E03F2300FB2D
:101B700003F000E0194817490B68C3F3031308AAE0
:101B8000134413F8102C20FA02F20B68C3F302235B
:101B900008AC234413F8183C22FA03F40B68C3F38F
:101BA000C22308A90B4413F8203C22FA03F3032EA6
:101BB00003D8DFE806F009040608002004E0104618
:101BC00002E0204600E0184609B070BC704700BF34
:101BD0003C630008041002402C10024000127A00FE
:101BE000006CDC0200093D00026802F441520B68FF
:101BF0001A434B681A438B681A43CB681A430B6924
:101C00001A434B691A438B6913430360C36923F476
:101C10000063C361704700BF036843F04003036083
:101C2000704700BF08B5204B98422BD008D8A3F5C9
:101C30000063984214D003F58063984219D008BD20
:101C40001A4B984227D003F5684398422BD140F2B3
:101C50000E30FFF7F3FE40F20E30FFF7FDFE08BD39
:101C600040F21140FFF7EAFE40F21140FFF7F4FEA8
:101C700008BD40F21240FFF7E1FE40F21240FFF7CC
:101C8000EBFE08BD40F21340FFF7D8FE40F21340D0
:101C9000FFF7E2FE08BD40F21440FFF7CFFE40F22E
:101CA0001440FFF7D9FE08BD004C00400050004032
:101CB00038B504460D461C4B98421CD008D8A3F5F5
:101CC000006398420FD003F5806398420FD01AE06A
:101CD000164B984213D003F56843984213D1032062
:101CE000FFF7FCFE10E00220FFF7F8FE0CE00220F8
:101CF000FFF7F4FE08E00220FFF7F0FE04E0022008
:101D0000FFF7ECFE00E0002000EB5501B1FBF5F120
:101D10004FF6F0720A4001F00F00A36842EA00019A
:101D20001943A16038BD00BF004C00400050004086
:101D3000C36843F40053C360704700BFC36823F017
:101D400008031943C1607047C36823F004031943B3
:101D5000C1607047C1F30801416070478B091B588F
:101D600001F01F0123FA01F111F0010F01D0012050
:101D700070470020704700BF10B48C09235801F051
:101D80001F01012202FA01F123EA0101215010BCD6
:101D9000704700BF38B50546002407E0295D0020E4
:101DA00000F014FC2B5D33B10134E4B22846FEF799
:101DB00007FA8442F2D338BD10B5A0B04FF4E13138
:101DC000002000F03DFB80220021684600F046FC28
:101DD000064B6C460FCB07C423706846FFF7DAFF4B
:101DE0000348FFF7D7FF20B010BD00BF886400088C
:101DF0006863000800B583B0ADF80400C2B2C0F358
:101E0000072302F580104230012202FA03F3032275
:101E100000218002FFF7ACFD03B05DF804FB00BFBA
:101E200010B5044640F20460FFF7FAFD40F202608C
:101E3000FFF7F6FD40F20360FFF7F2FD184B33F8B1
:101E40001400FFF7D7FF40F20A60FFF7E9FD022018
:101E5000FFF712FE134C01224FF480712046FFF76A
:101E600039FC4FF4E04202212046FFF7DBFC002161
:101E70002046FFF75DFC0020FFF720FC0222114600
:101E80002046FFF761FC012202212046FFF7AAFC51
:101E90002046FFF7F5FB2046FFF7FCFB10BD00BF17
:101EA000986400080028014010B50E4C0723024634
:101EB00000212046FFF766FC02212046FFF7C8FC00
:101EC00002210848FFF7D4FC0028F9D00221054878
:101ED000FFF7D6FC0A2000F08FF8034B186880B299
:101EE00010BD00BF002801403C28014038B5044621
:101EF00010B1012821D038BD40F20260FFF790FDFB
:101F000040F21D70FFF78CFD1023032200211B48B7
:101F1000FFF72EFD1A4D55F82400FFF7D7FC0021DE
:101F200055F82400FFF7E2FC55F82400FFF7BEFC4B
:101F300055F82400FFF7AAFC38BD40F20260FFF715
:101F40006FFD40F21D70FFF76BFD2023032200217F
:101F50000A48FFF70DFD0A4D55F82400FFF7B6FCBF
:101F6000002155F82400FFF7C1FC55F82400FFF7C5
:101F70009DFC55F82400FFF789FC38BD000801409E
:101F80000400002008B5C1EB01318908054AA2FB15
:101F90000132C2F34F120021034B53F82000FFF728
:101FA000BBFC08BD9F00EE09040000200E4B1B681F
:101FB0000E4AA2FB03239B0C013BB3F1807F0AD2A4
:101FC0000B4A5360F0210B4B83F8231000239360DE
:101FD0000721116000E0012303B1FEE70022054B59
:101FE00083F82320704700BF0000002083DE1B43DE
:101FF00010E000E000ED00E04FF47A7303FB00F026
:10200000034B1860024B1B68002BFBD1704700BFCD
:10201000DC090020034B1B681BB1024A1368013B1B
:1020200013607047DC09002008B540F20260FFF73A
:10203000F7FC40F20360FFF7F3FC40F20460FFF7A7
:10204000EFFC40F20560FFF7EBFC40F20660FFF7A3
:10205000E7FC40F20760FFF7E3FC08BD00B583B082
:10206000ADF8040079B99DF804009DF8053000F53D
:1020700080104230012202FA03F30322042180027D
:10208000FFF776FC0EE09DF804009DF8053000F5A2
:1020900080104230012202FA03F303221021800251
:1020A000FFF766FC9DF8043003F5801342339B0272
:1020B0009DF8051001228A405A6103B05DF804FBC7
:1020C00082B0ADF8040001290BD19DF8043003F56E
:1020D000801342339B029DF8051001228A401A6149
:1020E0000AE09DF8043003F5801342339B029DF80B
:1020F000051001228A405A6102B0704730B583B0A2
:10210000ADF80400C3B203F580134233C0F30720D7
:102110009C02012303FA00F529462046FFF778FCCC
:10212000C0F10102D2B229462046FFF76BFC03B092
:1021300030BD00BF2DE9F84304460D4617469846CA
:102140009DF82060B04B1970B04B1E7040F20260D9
:10215000FFF766FC40F20660FFF762FC40F20360A6
:10216000FFF75EFC40F20C60FFF75AFC40F20E7085
:10217000FFF756FC40F20F70FFF752FC012C18D00D
:1021800014B1022C2DD041E0DFF88892A023032265
:1021900018214846FFF7ECFB402303220421484660
:1021A000FFF7E6FB0823032210219948FFF7E0FB25
:1021B0002CE0DFF888924FF4204303221821484690
:1021C000FFF7D6FB4FF48043032204214846FFF774
:1021D000CFFB4FF48053032210214846FFF7C8FB82
:1021E00014E0DFF858922823032218214846FFF70D
:1021F000BFFB1023032204214846FFF7B9FB4FF42D
:102200000043032210218348FFF7B2FB042D44D87A
:10221000DFE805F003101B2936007F49E300181B97
:1022200082000A44002050601B1B9A004FF4827306
:102230008B5032E07849E300181B82000A440020EA
:1022400050601B1B9A00885027E07349E300181B5D
:1022500082000A444FF4004050601B1B9A004FF468
:1022600082738B5019E06C49E300181B82000A440A
:102270004FF4004050601B1B9A0000238B500CE071
:102280006549E300181B82000A444FF480605060E7
:102290001B1B9A004FF482738B50032F22D8DFE868
:1022A00007F0020A121AC4EBC40293005A4A1344FC
:1022B00000225A6116E0C4EBC4029300564A13444C
:1022C00001225A610EE0C4EBC4029300524A134447
:1022D00002225A6106E0C4EBC40293004E4A134442
:1022E00003225A6116B1012E09D010E0C4EBC402DA
:1022F0009300494A13444FF40072DA6007E0C4EBDC
:10230000C4029300444A13444FF40072DA60434B12
:1023100098450AD90CB9082100E00021C4EBC40299
:1023200093003D4A134499615AE03D4B98450AD9C0
:102330000CB9102100E00821C4EBC4029300364A16
:10234000134499614CE0374B98450AD90CB91821D0
:1023500000E01021C4EBC40293002F4A134499619A
:102360003EE0314B98450AD90CB9202100E01821F4
:10237000C4EBC4029300284A1344996130E02B4B0C
:1023800098450AD90CB9282100E02021C4EBC402E9
:102390009300214A1344996122E0254B98450AD9BC
:1023A0000CB9302100E02821C4EBC40293001A4A82
:1023B0001344996114E01F4B98450AD90CB9382190
:1023C00000E03021C4EBC4029300134A1344996126
:1023D00006E0C4EBC40293000F4A134438229A610A
:1023E000E200121B93000C49194400238B600B611F
:1023F000114D55F82400FFF7F7FB55F82400FFF7BF
:102400000BFCBDE8F88300BFE0090020E1090020D3
:102410000018014000080140E40900207FC3C90101
:10242000BFE1E400DF7072006F383900379C1C0098
:102430001B4E0E000D2707000C000020000C014071
:1024400070B504460E46042800F29080DFE800F0E4
:10245000031F39557100544A544B43F8202040F271
:102460000260FFF7DDFA40F20E60FFF7D9FA504D37
:102470004FF40073032218212846FFF779FA4FF42E
:102480008063032204212846FFF772FA6EE0494A6E
:10249000464B43F8202040F20260FFF7C1FA40F2B9
:1024A0001170FFF7BDFA424D04230322182128467C
:1024B000FFF75EFA0823032204212846FFF758FAA3
:1024C00054E03D4A394B43F8202040F20260FFF7C8
:1024D000A7FA40F21270FFF7A3FA354D4FF480636C
:1024E000032218212846FFF743FA4FF40063032222
:1024F00004212846FFF73CFA38E0304A2B4B43F8DA
:10250000202040F20460FFF78BFA40F21370FFF7CF
:1025100087FA2B4D4FF48063032218212846FFF7DA
:1025200027FA4FF40063032204212846FFF720FA1C
:102530001CE0244A1D4B43F8202040F20460FFF7C2
:102540006FFA40F20560FFF76BFA40F21470FFF784
:1025500067FA4FF48053032218211948FFF708FA4D
:102560000423032219461848FFF702FA0F4D55F8C5
:102570002400FFF757FB314655F82400FFF798FB7E
:10258000042155F82400FFF7DFFB082155F824004B
:10259000FFF7D4FB55F82400FFF7CAFB062155F8D6
:1025A0002400FFF7E9FB70BD00380140380A002025
:1025B000000801400044004000480040004C00403A
:1025C00000100140005000400014014070B5054665
:1025D0000E462C4607210E4B53F82500FFF7BEFB95
:1025E0000028F6D031460A4B53F82500FFF7B2FB1E
:1025F0000621074B53F82400FFF7B0FB0028F7D063
:102600000621034B53F82400FFF7B6FB70BD00BF53
:10261000380A0020002103E00A4B5B584350043184
:1026200009480A4B42189A42F6D3094A02E00023AD
:1026300042F8043B074B9A42F9D3FEF7EBFFFEF753
:1026400049FD70475867000800000020C0090020BD
:10265000C0090020880A0020FEE7000070B484074B
:1026600046D0541E002A41D0CDB2034602E0621E7D
:10267000E4B3144603F8015B9A07F8D1032C2ED972
:10268000CDB245EA05250F2C45EA054519D903F1D8
:1026900010022646103E0F2E42F8105C42F80C5CE9
:1026A00042F8085C42F8045C02F11002F2D8A4F18E
:1026B000100222F00F0204F00F041032032C134416
:1026C0000DD91E462246043A032A46F8045BFAD87E
:1026D000221F22F003020432134404F003042CB13D
:1026E000C9B21C4403F8011BA342FBD170BC704764
:1026F00014460346C2E700BF0EB4F0B59CB021AB50
:102700000F4953F8042B019305466FF00044086805
:1027100002954FF402774FF6FF7602A90695ADF8C1
:10272000147004940794ADF8166000F00BF8029B47
:1027300000221A701CB0BDE8F04003B0704700BF23
:10274000400400202DE9F04FC1B00C460991154618
:102750000E930A9002F034FB036817931846FDF7B6
:102760002FFDA38916901E0603D52369002B01F0C7
:102770001A8100231A4612932593249319930B93DD
:10278000DFF864A4149230AB239399461592A846BF
:1027900098F800304446EBB1252B02D11AE0252BE6
:1027A00003D014F8013F002BF9D1C8EB04058DB11B
:1027B000249B259AC9F8008001332A44072BC9F8C5
:1027C00004502592249300F3A68009F108090B9B7D
:1027D0002B440B932378002B00F0A68000231A468D
:1027E0008DF86F3019460C9307934FF0FF3B6378D9
:1027F00004F101085D4608F10108A3F12000582802
:1028000000F22584DFE810F08803230423049003FA
:102810002304230423042304230423049703A5038C
:1028200023045D00E2002304FE000501050105010B
:102830000501050105010501050105012304230426
:102840002304230423042304230423042304230450
:102850001501810223048102230423042304230499
:10286000C60223042304CD022304230423042304E7
:102870002304F7022304230425032304230423044D
:1028800023042304230423042304230423046603CE
:1028900079038102810281028103790323042304E5
:1028A000D1032304DB03A3006400EE032304F50338
:1028B0002304AA0323042304BC030C980E93404270
:1028C0000C90079B43F00403079398F8003092E7BD
:1028D0000E98AB46002104688DF86F10071D07980D
:1028E000302378228B458DF870304FF000058DF83D
:1028F000712040F00203C0F2C78320F0800343F050
:102900000203079354EA05030E9700F093830F46E2
:102910001192B348CEE223AA09990A9803F03AF833
:1029200048B90DF1C00952E7259B23B10A980999CE
:1029300023AA03F02FF8099B9B8913F0400F0B9BF0
:1029400018BF4FF0FF33184641B0BDE8F08F119328
:10295000AB46002A41F03382079A12F0200300F0C0
:102960002E820E9F073727F00703002703F1080187
:10297000BB450E91D3E900458DF86F70C0F27987A1
:1029800022F08003079354EA050300F0758330AE0C
:10299000E20842EA4572E90804F007030D461446CE
:1029A000303354EA050206F8013DF1D1079AD10708
:1029B00040F18480302B00F081803022731E06F8B5
:1029C000012C30AAD21A0D921E467AE098F80030F7
:1029D0002A2B08F1010401F0B981A3F13000092884
:1029E00098BF002501F26C8114F8013B05EB8505C9
:1029F00000EB4505A3F130000928F5D945EAE57556
:102A0000A046FAE6079B43F08003079398F800304E
:102A1000F1E6A3F1300000231C4618F8013B04EB5B
:102A2000840400EB4404A3F130000928F5D90C9488
:102A3000E3E61193AB46002A41F0AB81079B43F0DC
:102A400010030793079B980640F130850E9F0737C8
:102A500027F00707D7E9002307F108010E91144674
:102A60001D46002A73F10003C0F25B85BBF1000F25
:102A70009DF86F70C0F23885079B23F080030793A1
:102A800054EA050300F0DB81002D08BF0A2CC0F0DA
:102A9000DB8130AE204629460A220023FEF77AF970
:102AA000303206F8012D2046294600230A22FEF77F
:102AB00071F904460D4654EA0503EBD130AB9B1B7C
:102AC0000D930D9B5B45B8BF5B46089300231393A2
:102AD00017B1089B01330893079B13F002030F9370
:102AE00002D0089B02330893079B13F084031093D2
:102AF00040F0D7820C9B089A9D1A002D40F3D1829A
:102B0000102D2599249A374F27DD18964846102412
:102B1000B946099E2F460A9D04E0103F102F00F190
:102B2000080016DD01322F4B24921031072A25911F
:102B300080E81800F1DD23AA3146284602F02AFF7A
:102B400000287FF4F8AE103F102F2599249A30A862
:102B5000E8DC189E3D464F46814601326C18072A34
:102B600025942492C9F80070C9F8045000F3288411
:102B70009DF86F7009F1080977B1249B0133013486
:102B80000DF16F010122072B2594249389E806009B
:102B900000F3A08309F108090F9B6BB1249B01335B
:102BA00002341CA90222072B2594249389E80600ED
:102BB00000F39C8309F10809109B802B00F0D5825B
:102BC0000D9BC3EB0B07002F39DD074A249B0F92A7
:102BD000102F28DD22464FF0100B0A9D099C0AE0B9
:102BE000F064000810650008BC640008103F102F56
:102BF00009F1080916DD01331032072B25922493C1
:102C000089E8000CF2DD23AA2146284602F0C2FE24
:102C100000287FF490AE103F102F259A249B0DF1D1
:102C2000C009E8DC144601330F9A24933C44072B77
:102C3000259489E8840000F3418309F10809079B82
:102C4000DA0500F13082249B0D99C9F80060013348
:102C50000C44072B2594C9F80410249300F318831F
:102C600009F10809079B59073FD50C9B089A9D1A43
:102C7000002D3ADD102D249BBC4F23DD224610266B
:102C8000DDF828B0099C04E0103D102D09F1080979
:102C900017DD0133B54924931032072B259289E8BB
:102CA0004200F1DD23AA2146584602F073FE0028B7
:102CB0007FF441AE103D102D259A249B0DF1C009E3
:102CC000E7DC144601332C44072B25942493C9F8E0
:102CD0000070C9F8045008DD23AA09990A9802F087
:102CE00059FE00287FF427AE259C0B9B0C9A08996F
:102CF0008A42ACBF9B185B180B93002C40F0D48227
:102D0000002324930DF1C00942E51193AB46002A3C
:102D100041F051800E9F073727F0070303F10802A7
:102D20000E921A6814925B681593159B149D23F0FC
:102D30000044284621464FF0FF328D4BFDF7ECFF53
:102D4000002840F0C284284621464FF0FF32884BCD
:102D5000FDF7C4FF002840F0B884149815990022AC
:102D60000023FDF7B1FF002840F04F879DF86F70FA
:102D7000804E814B079921F0800107911199032220
:102D80004FF0000B08924729D8BF1E460D92CDF890
:102D90004CB09DE6079B43F00803079398F800307A
:102DA00029E51193AB46002A41F01180079B43F0BF
:102DB00010030793079A12F020037FF4D2AD07990E
:102DC00011F0100200F02C850E988DF86F30BBF1D9
:102DD000000F046800F104074FF00005C0F24885B9
:102DE0000A4622F08002079254EA05020E9700F08C
:102DF00043811F46CBE51193AB46002A40F0E387A1
:102E0000079B43F010030793079A12F0200300F08A
:102E100032830E9F073727F00703002703F10801CD
:102E2000BB450E91D3E900458DF86F70C0F25C830D
:102E300022F08003079354EA05037FF425AEBBF12B
:102E4000000F00F0FE80002440AE303406F8414D03
:102E500034E61193AB46002A40F09787079B47481A
:102E60009D0640F197800E9F073727F00703D3E9AF
:102E7000004503F108020E92079A12F0010700F0D4
:102E8000418254EA050300F005859DF844208DF841
:102E900071200027079A8DF86F703023BB458DF89D
:102EA000703042F00203C0F2B58622F0800343F096
:102EB0000203079330AE230904F00F0143EA0573C0
:102EC0002A091C461546435C06F8013D54EA0503F1
:102ED000F1D1F3E50E9911930A688DF8982000233B
:102EE0000A461F468DF86F30043201230893BB4613
:102EF00013970E920D9326AEEEE51193AB46002A82
:102F00003FF4A0AD8DF86F109CE5079B43F04003A4
:102F1000079398F800306EE498F8003000297FF4A9
:102F20006AAC0122202166E4079B43F0010307936A
:102F300098F800305FE40E9C23680C931846002834
:102F4000234603F10403FFF6B8AC0E9398F8003063
:102F500051E498F8003001222B214CE41193AB4648
:102F6000002A3FF451AF8DF86F104DE7106500084F
:102F7000FFFFEF7FD0640008CC640008DC64000829
:102F80001193AB46002A40F02A87079B99489D067B
:102F90003FF569AF079BDC0640F135840E9A134676
:102FA000043314680E93002566E798F800306C2B04
:102FB00000F0E284079840F0100007901BE4002A1C
:102FC00040F00987079B9B0640F106840E9A0B99F7
:102FD0001368CD170846043229460E92C3E9000152
:102FE000FFF7D6BB079B43F02003079398F8003008
:102FF00001E40E9A1193166800248DF86F40171D96
:10300000002E00F0CD85002DC0F218852A462146FD
:103010003046FDF745F9002800F02A86831B0D9302
:10302000A34623EAE3730E970893CDF84CB09DF8BE
:103030006F704DE56F481192BBF1000F40F0738146
:103040005F464FF0000BCDF834B030AE39E5119348
:10305000002A40F0AC86119A002A3FF465AC0023A8
:1030600001211F4608918DF898208DF86F309B46FE
:1030700013930D9126AE2FE5BBF1000F00F00386F0
:1030800000270024002582E45A480793119254EA4D
:1030900005030E974FF000077FF40CAF00240025C6
:1030A00008E7259C68E5119B652B40F3A9801498DF
:1030B000159900220023FDF7FDFD002800F0358161
:1030C000249B4D4AC9F80020013301340122072B0B
:1030D00025942493C9F8042000F3E88309F1080932
:1030E0001D9B129A934203DB079BDB077FF5BAAD6A
:1030F000249B1699179AC9F8002001330C44072B1A
:103100002594C9F80410249300F3408409F10809B8
:10311000129B5D1E002D7FF7A5AD384A249B0F92B0
:10312000102D40F3E68110260A9FDDF824B005E05B
:1031300009F10809103D102D40F3DB8101331034F3
:10314000072B25942493C9F800A0C9F80460EFDD8B
:1031500023AA5946384602F01DFC00287FF4EBAB49
:10316000259C249B0DF1C009E4E70C9B089A9F1A4B
:10317000002F7FF725AD214A249B0F92102F2BDDC6
:103180004A462146B946102537460A9C099E06E064
:10319000A9F11009B9F1100F02F1080218DD01338D
:1031A0001031072B25912493C2F800A05560EFDD64
:1031B00023AA3146204602F0EDFB00287FF4BBAB8A
:1031C000A9F11009B9F1100F2599249B30AAE6DC6A
:1031D0003E460C464F46914601330F9A24933C4499
:1031E000072B259489E8840000F3458209F108093A
:1031F000E6E400BFF06400080C650008BC64000849
:10320000129B249D012B40F30882013501340123D8
:10321000072D25942495C9F80060C9F8043000F3FF
:103220000D8209F10809169A179BC9F8003001357B
:103230001444072D25942495C9F8042000F30E8228
:1032400009F108090023149815990022FDF732FDB1
:10325000129B002840F0C380013B013501361C441D
:10326000072D24952594C9F80060C9F8043000F3AF
:10327000F58009F10809199AC9F8042001351444A8
:103280001FAB072D25942495C9F800307FF7E8ACD3
:1032900023AA09990A9802F07DFB00287FF44BAB22
:1032A000259C0DF1C009DDE423AA09990A9802F0D2
:1032B00071FB00283FF424ADFFF73DBB23AA099919
:1032C0000A9802F067FB00287FF435AB259C0DF1CE
:1032D000C009B4E423AA09990A9802F05BFB00280C
:1032E0007FF429AB259C0DF1C00955E423AA099967
:1032F0000A9802F04FFB00287FF41DAB259C0DF1CE
:10330000C00959E4BBF1000F8DF86F70C0F2DA828A
:1033100022F08003079354EA05037FF4CBADBBF1A1
:10332000000F3FF48DAE0027B8E61D9D002D40F341
:10333000CC82139B129A9342A8BF1346002B1D46C2
:103340000DDD249BC9F8006001332C44072B259424
:10335000C9F80450249300F3A38309F10809139BCF
:10336000002DA8BF5B1B002B1D4640F3F680BA4A18
:10337000249B0F92102D40F3808222461027DDF807
:1033800028B0099C05E009F10809103D102D40F313
:10339000738201331032072B25922493C9F800A0C1
:1033A000C9F80470EFDD23AA2146584602F0F2FA6C
:1033B00000287FF4C0AA259A249B0DF1C009E4E7F8
:1033C00023AA09990A9802F0E5FA00287FF4B3AA23
:1033D0009DF86F70259C0DF1C009FFF7CDBB5E1EF7
:1033E000002E7FF748AF9C4B0F93102E2CDDCDF8AD
:1033F00034801027B046DDF828B0099E06E0A8F119
:103400001008B8F1100F09F108091ADD0135103460
:10341000072D25942495C9F800A0C9F80470EEDDA5
:1034200023AA3146584602F0B5FA00287FF483AA51
:10343000A8F11008B8F1100F259C249D0DF1C009CA
:10344000E4DC4646DDF834800F9B01353444072D1B
:103450002594249589E848007FF70BAF23AA0999A2
:103460000A9802F097FA00287FF465AA259C249D0B
:103470000DF1C009FFE6079911F0100200F0088174
:103480000E988DF86F30BBF1000F046800F104074F
:103490004FF0000526DB0A4622F08002079254EA2C
:1034A00005020E971F467FF4EFAAC8E4079BD906D2
:1034B0002AD4079B5A0627D50E99B1F9004004314A
:1034C000E51722462B460E91FFF7CBBA0E998DF8E1
:1034D0006F30BBF1000F0C6801F104074FF00005DD
:1034E00080F245820E971F4654EA05037FF4CCAA6A
:1034F000AAE401330F9A24932C44072B259489E8DE
:1035000024007FF7ADABC3E60E9A1468134604336C
:10351000E51722460E93002A2B4673F10003BFF6EF
:10352000A5AA64424FF02D0765EB4505BBF1000FDE
:103530008DF86F70FFF6A8AA079B23F0800307930E
:10354000FFF7A2BA23AA09990A9802F023FA0028E1
:103550007FF4F1A9259C0DF1C009139A1D9B3244FB
:103560001746129A934247DB079AD50744D412991B
:103570000E44F51BCB1A9D42A8BF1D46002D2E46BA
:103580000DDD249AC9F8007001322C44072A2594D5
:10359000C9F80450249200F3128309F10809002E9F
:1035A000ACBF9D1B1D46002D7FF75CAB2A4A249BB8
:1035B0000F92102D9DDD10260A9FDDF824B004E047
:1035C00009F10809103D102D93DD01331034072B4C
:1035D00025942493C9F800A0C9F80460F0DD23AA5B
:1035E0005946384602F0D6F900287FF4A4A9259C54
:1035F000249B0DF1C009E5E7249A16981799C9F89C
:10360000001001320444072A2594C9F804002492CA
:1036100000F3A58209F10809A9E7079BD8073FF540
:10362000F4AD013501340123072D25942495C9F803
:103630000060C9F804307FF71CAE0FE723AA099990
:103640000A9802F0A7F900287FF475A9259C249D0B
:103650000DF1C009E7E500BFBC64000823AA099981
:103660000A9802F097F900287FF465A9259C249D0B
:103670000DF1C009E6E523AA09990A9802F08AF932
:1036800000287FF458A9259C0DF1C009FFF798BACE
:10369000079911F040033FF419AF0E988DF86F2091
:1036A0000346BBF1000F03F1040304884FF000054B
:1036B000C0F2B98121F08001079154EA05010E930F
:1036C00017467FF4E1A9FFF7BABB149C22462046B7
:1036D000159C23462146FDF71FFB002840F015836B
:1036E000119BBBF1FF3F23F020030D9300F0768286
:1036F000472B00F09281079B43F480731093159B36
:103700001F1E149B0893BBBF3B4603F100470023D9
:103710002D230F93119B662B00F06382462B00F044
:103720005E810D9B089A452B21A81EA90CBF0BF1A9
:1037300001055D46049003911DA802213B460290BD
:10374000019500910A9800F0FBFB119B672B064640
:1037500040F07D82079BDA0740F1BF827419089818
:10376000394600220023FDF7A5FA002840F0A48185
:10377000219B9C4206D930215A1C21921970219B11
:103780009C42F9D89B1B12930D9B472B00F0818123
:10379000119B652B40F36A82119B662B1D9B139333
:1037A00000F04782139A12998A42C0F23682079B30
:1037B000D90700F1898222EAE2730D926722119201
:1037C0000F9A002A40F05B810893109B0793934661
:1037D0009DF86F70FFF77CB9079BDF060BD4079B42
:1037E0005E0608D50E9A136804320E92BDF82C209E
:1037F0001A80FEF7CDBF0E9A136804320E920B9A10
:103800001A60FEF7C5BF079B0E9A13F0400F1346D0
:1038100000F00E81043314880E930025FFF72CBBB3
:10382000079911F0400317D00E988DF86F200346CA
:10383000BBF1000F03F1040304884FF00005C0F250
:10384000F58021F08001079154EA05010E933FF4C1
:1038500013AC1746FFF79BB80E998DF86F30BBF18C
:10386000000F0C6801F104074FF0000580F2818021
:103870000E970027FFF78BB8144601330F9A249355
:103880002C44072B259489E824003FF75BAE09F10F
:10389000080962E60027BB458DF86F70FFF6FEABA6
:1038A000079B23F080030793FFF7C6BB23AA099960
:1038B0000A9802F06FF800287FF43DA8259C0DF1CE
:1038C000C0090DE40E9FFFF7E2BB249BB14AC9F883
:1038D0000020013301340122072B25942493C9F8D9
:1038E00004206FDC09F108092DB9129B1BB9079B55
:1038F000DF077FF5B7A9249B1699179AC9F800200E
:1039000001330C44072B2594C9F80410249300F3C9
:10391000C98109F108096D42002D40F3A3809E4A38
:103920000F92102D40F3298122461027DDF828B090
:10393000099C05E009F10809103D102D40F31C8198
:1039400001331032072B25922493C9F800A0C9F83F
:103950000470EFDD23AA2146584602F01BF8002828
:103960007EF4E9AF259A249B0DF1C009E4E7079A9C
:1039700092E5079AFFF735BA079B43F020030793B8
:1039800008F1010898F80030FEF735BF23AA09991D
:103990000A9801F0FFFF00287EF4CDAF259C0DF1C1
:1039A000C009FFF7B5BB40210A9801F017FA099A40
:1039B00010601061002800F0F381099A40235361E0
:1039C000FEF7D7BE23AA09990A9801F0E3FF002861
:1039D0007EF4B1AF1D9D259C0DF1C00984E721A89F
:1039E0001EA9049003911DA803210290089ACDF806
:1039F00004B03B4600910A9800F0A2FA5D460646E4
:103A0000119B462B06EB05047FF4A9AE3378302BCF
:103A100000F06D811D9D2C44A1E6BBF1000F08BF95
:103A20004FF0010B67E60E9317465DE50E9320E716
:103A3000043314680E930025FFF71EBA3046FCF7D6
:103A4000BFFBA34603460D90FFF7EBBA23AA0999E3
:103A50000A9801F09FFF00287EF46DAF259C249BFF
:103A60000DF1C0091299C9F8006001330C44072B0D
:103A700025942493C9F804107FF7F2A808E42D27B1
:103A80000893109B07938DF86F704FF0000BFFF7B2
:103A900020B81D9BDD1C11DB9B450FDB139381E6DA
:103AA00023AA09990A9801F075FF00287EF443AF14
:103AB000259C0DF1C00952E4234663E6119A023AAF
:103AC0001192013B002B9DF844201D93B8BF5B422F
:103AD0008DF87C20B4BF2D222B22092B8DF87D2060
:103AE00040F3FD800DF18B0004462C4A82FB03213C
:103AF000DA17C2EBA10202EB8201A3EB410303F14F
:103B00003001092A134604F8011DEEDC214630334A
:103B1000DAB201F8012D884240F23F810DF17E01B9
:103B2000234601E013F8012B01F8012B9842F9D14B
:103B3000431C1B1B0DF17E0213441FAA9B1A129AF1
:103B40001993012A13440D9340F3F6800D9B169AA6
:103B5000134400220D93139223EAE37330E623AA61
:103B600009990A9801F016FF00287EF4E4AE1D9B27
:103B7000259C0DF1C009FAE4144601330F9A2493F1
:103B80002C44072B259489E824003FF75FAF09F107
:103B9000080967E70C650008BC640008676666668C
:103BA000062D2B4628BF06230D9323EAE373B34665
:103BB0000E971396374608938B4EFEF789BF23AABC
:103BC00009990A9801F0E6FE00287EF4B4AE1D9B28
:103BD000129A259CD31A0DF1C009E0E44FF0060BB0
:103BE00089E521A81EA9049003911DA80321029034
:103BF000089ACDF804B03B4600910A9800F0A0F96D
:103C00005D46064600EB0B0400E72D278DF86F702C
:103C1000FFF7AEB80793FFF74DB9169A129B1344FE
:103C2000139A0D93002A7FDD672223EAE373119232
:103C3000C6E5002B40F39880BBF1000F6BD1079ACB
:103C4000D40768D41A460D9223EAE373B8E5119BB2
:103C5000472B7FF483AD079BDB073FF5D1AE219B5C
:103C60009B1B12930D9B472B3FF413AF1D9B28E723
:103C700025EAE5730E9708930D95834613909DF8FA
:103C80006F70FEF725BF079BDB075F4605D540AE8B
:103C9000302306F8413DFEF711BFCDF834B030AE09
:103CA000FEF70FBF23AA09990A9801F073FE0028B6
:103CB0007EF441AE1D9D259C249B0DF1C0092AE692
:103CC000A0460025FEF799BD169A139B1344672260
:103CD0000D93119223EAE37372E5219B52E5303391
:103CE00030228DF87F308DF87E2020AB25E70898B4
:103CF000394600220023FCF7DDFF00287FF48AAE5E
:103D0000C5F101051D952C4429E5384E384B9DF829
:103D10006F70FFF72FB8139B169A9D1805EB0B03D6
:103D20000D9323EAE3734BE5139B0D9AC3F1010353
:103D30001A4413460D9277E7079B13F001037FF4B3
:103D400005AF13930D9B23EAE37339E50E9898F8BA
:103D5000013005680430002D0E90A046BEF64BAD34
:103D60004FF0FF35FEF747BDBBF1000F02D1079BB7
:103D7000D80707D5169B5D1C05EB0B030D9323EAB3
:103D8000E3731DE501230D931AE58DF86F10FFF71E
:103D900065B88DF86F10FEF751BE0DF17E03CCE6CD
:103DA0000A9A0C2313604FF0FF30FEF7CDBD8DF85B
:103DB0006F10FFF750B98DF86F10FEF7ABBF8DF89D
:103DC0006F10FEF7C9BD8DF86F10FFF719B88DF8A9
:103DD0006F10FEF7EBBF8DF86F10FFF7F3B88DF89B
:103DE0006F10FFF7D2B800BF04650008D864000860
:103DF000D4640008024B13B1024800F005B87047C4
:103E000000000000994D0008002301461A4618469C
:103E100001F040BE02690B69934200F38D802DE9E9
:103E2000F04F03F1FF3801F1140700F1140B57F8BC
:103E300028205BF828304FEA880483B00132B3FBB6
:103E4000F2F90BEB0403009407EB040A0193B9F1B8
:103E5000000F39D00025BC46DE462B465CF8046BCB
:103E6000DEF80020B4B209FB0455360C2C0C09FB1B
:103E70000644ADB25B1BA6B213FA82F3C6EB124640
:103E800006EB23469BB243EA0643E2454EF8043B69
:103E90004FEA14454FEA2643E0D2009B5BF803301B
:103EA00093B9019C231F9B450CD254F8043C4BB999
:103EB000A4F1080302E01A68043B1AB99B4508F113
:103EC000FF38F8D3C0F81080044601F04BFC0028FE
:103ED0002EDB09F101095D46002357F8041B286811
:103EE0008AB29A1A090C12FA80F2C1EB104303EB62
:103EF000224391B241EA0341BA4545F8041B4FEA17
:103F00002343EAD25BF828200BEB880382B91A1FFF
:103F100093450BD253F8042C42B9083B02E01A68CF
:103F2000043B1AB99B4508F1FF38F8D3C4F8108058
:103F3000484603B0BDE8F08F002070470000000045
:103F40002DE9F04F016C97B08146239C92469B4629
:103F500049B1426C4A60012393408B6001F020FA22
:103F60000023C9F84030BBF1000FD84633DB0023F3
:103F70002360A54B1A4608EA0303934214D0504627
:103F8000594600220023FCF795FE054648B3229AC5
:103F900001231360249B002B00F0C5809B48186010
:103FA000013817B0BDE8F08F229A42F20F73136008
:103FB000BAF1000F00F0A2809548249B002BF0D0AE
:103FC000C378002B00F0B18000F10803249A13603D
:103FD00017B0BDE8F08F01232BF000482360C346E3
:103FE000C7E714AA15AB0192009352465B464846B8
:103FF00001F062FC5FEA1854089040F08880149D3C
:10400000159C2C4404F23243202B40F39182C3F1DF
:10401000400304F2124008FA03F82AFA00F040EADA
:104020000800FCF769FB0123013CA1F1F871109332
:104030000022784BFCF722FA6DA3D3E90023FCF7AA
:10404000D1FB6DA3D3E90023FCF71AFA06462046FC
:104050000F46FCF761FB6AA3D3E90023FCF7C2FB20
:1040600002460B4630463946FCF70AFA06460F462A
:10407000FCF768FE00220490002330463946FCF726
:1040800023FE002840F03082049E162E00F2298282
:10409000614B03EBC603D3E9000152465B46FCF7D4
:1040A00031FE002800F04982731E049300230C9314
:1040B0002C1B631E029300F1328200230593049BA4
:1040C000002BC0F22382029A0B931146194400235D
:1040D00002910A93209B092B29D8052B40F358867F
:1040E000043B20930025209B023B032B00F23586E6
:1040F000DFE813F02C03280237035904444B474AE6
:10410000C8F31300002814BF1846104655E7CBF338
:10411000130343F07F5110955046A4F2FF3441F44D
:104120004011149D84E73E483BE7C31C4EE7002145
:10413000C9F844104846209101F00CF94FF0FF33C4
:104140000693209A0D93012307902192C9F840000D
:104150000993159B002BC0F2D180049A0E2A00F31C
:10416000CD802D4B03EBC203D3E90034CDE90234FB
:10417000219B002BC0F2008356465F4650465946AD
:10418000DDE902AB52465B46FCF756FCFCF7DAFD74
:104190000446FCF7C1FA52465B46FCF723FB0B468C
:1041A000024639463046FCF769F9079D04F13003B1
:1041B0002B70069B012B06460F4605F1010562D0C8
:1041C0000022184BFCF70EFB0022002306460F4688
:1041D000FCF770FD00287ED1CDF81490DDF818A012
:1041E000DDF81CB0DDE9028929E000BFAFF30080F3
:1041F00061436F63A787D23FB3C8608B288AC63FED
:10420000FB799F501344D33F0000F07F0D650008F9
:104210002C6500080000F83F3065000820650008A4
:104220000C65000800002440FCF7DCFA00220023A3
:1042300006460F46FCF73EFD002840F0B783424695
:104240004B4630463946FCF7F7FBFCF77BFD04464E
:10425000FCF762FA42464B46FCF7C4FA02460B46AC
:1042600030463946FCF70AF904F1300E05F801EB47
:10427000CBEB050ED64506460F464FF00002B04B7D
:10428000D2D1DDF8149032463B4630463946FCF731
:10429000F7F806460F4602460B46DDE90201FCF739
:1042A00013FD40B932463B46DDE90201FCF702FD51
:1042B00088B1E3070FD515F8014C079A6B1E04E08F
:1042C0009A4200F02C8413F8014D392C03F10105BA
:1042D000F6D001341C700899484601F061F80022BC
:1042E000049B2A70229A01331360249B002B00F058
:1042F000A78307981D6017B0BDE8F08F099A002AC0
:1043000000F01281209A012A40F35882069B0A9AF3
:104310005F1EBA42C0F29783D71B069B002BC0F2E8
:104320008A84059D069B059A1A440592029A0121EA
:104330001A444846029201F0CBF8064665B102994C
:1043400000290B4608DDA942059AA8BF2B46D21AC0
:10435000ED1ACB1A059202930A9B002B40F3FC82C4
:10436000099A002A00F00182002F00F0FE813146F8
:104370003A46484601F04EF9DDF8208001464246B3
:104380000646484601F0AEF841460446484601F06C
:1043900007F80A9BDB1B0A9340F0E681012148469F
:1043A00001F096F80B9B8046002B00F01982014625
:1043B0001A46484601F02EF9209B012B804640F317
:1043C000F8820027D8F8103008EB8303186901F051
:1043D00031F8C0F12000029A104410F01F0000F0E4
:1043E000F681C0F12003042B40F3CA84059BC0F181
:1043F0001C00034405931346034405440293059BA4
:10440000002B05DD21461A46484601F053F90446C3
:10441000029B002B05DD41461A46484601F04AF949
:1044200080460C9B002B40F07C82069B002B40F3C7
:104430009582099B002B40F0F581DDF81CB0069FAA
:104440005D4602E000F0B6FF044641462046FFF715
:10445000E1FC00F1300A05F801ABCBEB0503BB42F0
:104460004FF00A024FF0000321464846EADB079B63
:10447000069A012AACBF9B1801331D464FF0000B72
:1044800021460122484601F015F94146089001F005
:1044900069F9002840F30D8315F8012C07996B1E6C
:1044A00004E08B4200F0788213F8012D392A03F1E1
:1044B0000105F6D001321A704146484600F070FFFF
:1044C000002E3FF408AFBBF1000F05D0B34503D079
:1044D0005946484600F064FF3146484600F060FF08
:1044E000F9E601230C93E3E5DDF810804046FCF784
:1044F00013F902460B4630463946FCF7DBFB002831
:104500007FF4C2AD08F1FF330493BDE5059A049B27
:10451000D21A5B420A93002305920B93DAE55B42C1
:10452000059300230293CAE50A9F059D099E05E7AE
:10453000C3F120080AFA08F073E50C90B8E500BF53
:104540000000244000230993049B219A13440D93F7
:104550000133002B069340F38382069C26460021FC
:10456000172EC9F844100BD9012204235B0003F174
:104570001400B042114602F10102F7D9C9F8441003
:10458000484600F0E7FE0E2C0790C9F840003FF6C1
:10459000E0AD002D3FF4DDAD04995746D846002923
:1045A000CDE90E7840F39282914B01F00F020E118B
:1045B00003EBC203F006D3E9004540F14C828D4B7A
:1045C00050465946D3E90823FCF736FA06F00F06A1
:1045D00082468B464FF0030886B1864FF10709D516
:1045E00020462946D7E90023FCF7FCF808F101082A
:1045F00004460D46761007F10807EFD122462B46F8
:1046000050465946FCF718FA06460F460C9B43B134
:104610000022794B30463946FCF756FB002840F023
:1046200020834046FCF778F832463B46FCF7DAF840
:10463000724B0022FBF724FF069B0446A1F1507544
:10464000002B00F0DF81049BDDF818801193099B9B
:10465000002B00F09782664B694903EBC80353E9CE
:1046600002230020FCF7E8F922462B46FBF706FF61
:1046700082468B4630463946FCF764FB0446FCF71D
:104680004BF802460B4630463946FBF7F7FE30340E
:10469000079DE4B206460F462C7002460B46504674
:1046A00059460135FCF72EFB00284CD132463B46DB
:1046B00000205149FBF7E2FE02460B4650465946A0
:1046C000FCF720FB002840F00D83B8F1010F40F308
:1046D000B381079B98440DE000204749FBF7CEFECD
:1046E00052465B46FCF7F0FA002840F0FB82454555
:1046F00000F0A281504659460022424BFCF772F866
:104700000022404B82468B4630463946FCF76AF819
:104710000F460646FCF716FB0446FBF7FDFF024674
:104720000B4630463946FBF7A9FE3034E4B2524618
:104730005B4605F8014B06460F46FCF7C5FA3246C4
:104740003B460028C8D0119B0493C4E5002309937D
:10475000219B002B40F389811E461C460D93069336
:10476000FDE601230993F3E708940A9A089948465D
:1047700000F050FF044611E6069B002B3FF7FCAC0F
:1047800040F0DA820022204BDDE90201FCF72AF832
:1047900052465B46FCF7ACFADDF818804646002826
:1047A00000F0F280219B079DDB430493414648467D
:1047B00000F0F6FD002E3FF48EAD8DE6109A002A33
:1047C00000F0418203F233430A9F059DABE51C20B4
:1047D000059B03440593029B0344054402930EE6A4
:1047E000209B012B40F382820B9F0120F3E500BF49
:1047F00030650008086600080000F03F00001C401B
:104800000000E03F00002440000014403146002337
:104810000A22484600F0CEFD0D9B002B064640F3D1
:1048200097820693002D05DD31462A46484600F062
:1048300041FF0646002F40F07C810596069B079AB3
:10484000DDF814B0013BD31808930AF00103099373
:104850001746C24651462046FFF7DCFA3146054668
:10486000204600F07FFF5A4602905146484600F02D
:1048700099FFC268804605F13003002A49D10146FC
:104880002046069300F06EFF41460590484600F032
:1048900087FD059A069B2AB9209919B9099900291B
:1048A00000F0368202990029C0F2E48005D12099F7
:1048B00019B90999002900F0DD80002A00F34D8123
:1048C000089A3B7007F101089742454600F0548171
:1048D000214600230A22484600F06CFD5E4504464E
:1048E00031464FF000034FF00A0248460BD000F06B
:1048F00061FD5946064600230A22484600F05AFD4B
:1049000047468346A6E700F055FD474606468346E0
:10491000A0E701464846059300F042FD0122059BB1
:10492000C0E74146204600F01DFF0028BFF67DADE0
:104930002146049C0023013C0A224846049400F0CE
:1049400039FD099B0446002B7FF460AF0D9B002BC3
:1049500040F3F681069370E5089C1FE5209B022B2F
:104960007FF767AD069B002B40F079814146052219
:10497000484600F01FFD01468046204600F0F2FE4A
:10498000002808947FF70EAF049A0799312301326B
:1049900004920B704D1C09E7049A01320492079AA5
:1049A0003123137088E501230993CDE5DDF81490D8
:1049B00091E4BAF1000F7FF404ADCBF31303002BA5
:1049C00040F03F812BF000473F0D3F0537B1059B7D
:1049D00001330593029B0133029301270B9B0120B6
:1049E000002B3FF4F8ACEDE44046FBF795FE324671
:1049F0003B46FBF7F7FE0022BF4BFBF741FD0446A9
:104A0000A1F15075304639460022BC4BFBF736FD0C
:104A100022462B4606460F46FCF774F980460028CE
:104A200040F00581224605F1004330463946FCF747
:104A30004BF908B14646B5E6DDE90EABFFF789BB99
:104A40000798FFF7AEBA0A9B0B9A0A97FB1A1A440B
:104A50000B92002761E4DDE90EAB4FF00208BBE5E5
:104A60001C460021C9F844108AE5012421940D94C4
:104A70000694F6E7002AD046CDF814B09A4611DD28
:104A800021460122484600F015FE4146044600F04A
:104A900069FE002840F34981BAF1390F00F0068120
:104AA00005F1310AB34687F800A07D1C059E0894E5
:104AB00002E504D11AF0010F01D0EDE4154615F816
:104AC000013C302B05F1FF32F8D0F5E4049B5C4249
:104AD000002C00F0BF808A4B04F00F0203EBC203EE
:104AE000D3E90023DDE90E01FBF77CFE2411064625
:104AF0000F4600F02A81834D4FF00208E20709D5E6
:104B000030463946D5E90023FBF76CFE08F1010871
:104B100006460F46641005F10805EFD176E50799C2
:104B200030220A70049A15F8014C01320492FFF702
:104B3000D0BB7168484600F00DFC33699A1C0546ED
:104B4000920006F10C010C30FBF7FAFB294601221A
:104B5000484600F0AFFD059070E6392BCDF814B053
:104B6000D04600F0A38003F1010AB34687F800A005
:104B70007D1C059E08949FE45A46D046B3469A464B
:104B800016467DE45E4908F1FF3A01EBCA01224670
:104B90002B46D1E90001FBF725FECDE9120139468C
:104BA0003046FCF7CFF80446FBF7B6FD02460B464D
:104BB00030463946FBF762FC079A3034B8F1010FF2
:104BC00006460F46147002F101051ED0079B03EB49
:104BD000080BA84600224C4B30463946FBF702FE34
:104BE0000F460646FCF7AEF80446FBF795FD303459
:104BF00002460B4630463946FBF740FC08F8014BAD
:104C0000C34506460F46E5D1554400223F4BDDE93A
:104C10001201FBF735FC32463B46FCF755F80028FD
:104C20004CD0119B049315F8014CFFF746BB4FF095
:104C300000084646A8E6059B069A9D1A0023FFF742
:104C400072BB0027CAE6149B0A9F059DC3F1360379
:104C5000FFF769BBDDE90E674FF00208D6E4089460
:104C6000A0E5069B002B3FF4BFAE0D9B002B7FF70A
:104C7000E3AE0022244B30463946FBF7B3FD06462F
:104C80000F4608F10100FBF747FD32463B46FBF7B4
:104C9000A9FD0022184BFBF7F3FB049ADDF83480E2
:104CA000013A0446A1F150751192D0E43922B3467D
:104CB0000894059E3A707D1CFFF7F0BBDDE91223D6
:104CC00000201249FBF7DAFB32463B46FCF71AF8A4
:104CD00008B9B1E6154615F8013C302B05F1FF3255
:104CE000F8D030E5119B0493FFF7E7BABAF1000F53
:104CF0007FF47AAD61E600BF00001C400000144064
:104D00003065000808660008000024400000E03F0D
:104D1000392BCDF814B0D046DDF808B09A46C5D08E
:104D2000BBF1000F3FF7BCAEBCE67FF4BBAE1AF0A0
:104D3000010F3FF4B7AEAFE64FF00008464631E54D
:104D4000209B022B21DC0D9B04E64FF002085DE462
:104D5000209B022B19DC0D9B63E50024C9F844401D
:104D60002146484600F0F6FA4FF0FF3306930D93C4
:104D7000012307902194C9F840000993FFF7E9B98E
:104D80003FF43DABC0F13C0022E50D9B0693E9E505
:104D90000125FFF7A8B900BF38B5074D074C2C1BFC
:104DA000A41005D0013C55F8043D9847002CF9D1DA
:104DB000BDE8384001F0B2BA5867000854670008EF
:104DC000044A054B1268506B002808BF1846F030A3
:104DD000704700BF40040020540800202DE9F04F28
:104DE00001F10B05162D83B0064640F29F8035F089
:104DF000070500F1BF80A94200F2BC8000F0A6FACE
:104E0000B5F5FC7FC0F09C826B0A00F0BA80042BE1
:104E100000F28381A80900F1390E4FEA4E033830C1
:104E2000C44F07EB8303A3F108015C68A14207D1DB
:104E3000ACE0002A80F2AC80E468A14200F0A680D9
:104E4000636823F003035A1B0F2AF2DDB9493C695A
:104E500001F1080E744500F0B381636823F0030389
:104E60005A1B0F2A00F39981002AC1F814E0C1F8F7
:104E700010E080F29E80B3F5007F80F06781DB0850
:104E800003F1010C01229B1002FA03F34A6851F866
:104E90003C80C4F8088001EBCC091A43A9F108034F
:104EA000E3604A6041F83C40C8F80C40831001249C
:104EB0009C40944200F28A80144206D120F0030004
:104EC0006400144200F10400FAD007EBC009CC469C
:104ED0008046DCF80C108C4507D173E1002A80F283
:104EE0008181C9688C4500F06D814B6823F0030314
:104EF0005A1B0F2AF2DD0C46D1F80CC054F8088F6B
:104F00004B1945F001054D6042F00101C8F80CC095
:104F10003046CCF808807B613B61C3F80CE0C3F8F5
:104F200008E059609A5000F013FA1FE0102921D8C8
:104F300000F00CFA1025062302207E4F07EB8303B6
:104F4000A3F108025C68944200F045816368E1685F
:104F5000A56823F00303234430465A68E96042F011
:104F600001028D605A6000F0F3F90834204603B066
:104F7000BDE8F08F00240C232046336003B0BDE869
:104F8000F08F80234FF0400E3F2049E770465DE7E9
:104F90002344E1685A68A56842F00102E96030469E
:104FA0008D605A6000F0D4F90834204603B0BDE8A3
:104FB000F08F234430465A6842F001025A6000F0F4
:104FC000C7F90834204603B0BDE8F08FBC686368B9
:104FD00023F00308A84504D3C5EB08030F2B00F307
:104FE0008C80554BDFF860911A68D9F80030013396
:104FF0002A4404EB080A00F0608102F580520F3267
:1050000022F47F6222F00F0211463046019200F036
:10501000AFFCB0F1FF3F8346019A00F05881824512
:1050200000F2FC80454B1968DA451144196000F024
:105030005381D9F80000DFF810E101301BBFCAEB43
:105040000B0A5144CEF800B019601BF0070100F0C4
:105050001781C1F10800C1F58051834408315A44D9
:10506000C2F30B02C2EB010949463046019300F03E
:105070007FFC431C019B00F03F81CBEB00024A44C4
:1050800042F001021968C7F808B04944BC42CBF8A5
:1050900004201960DFF8A49016D0B8F10F0F40F289
:1050A000FD806268A8F10C0323F00703E01802F00A
:1050B00001024FF0050E1A430F2B6260C0F804E0A6
:1050C000C0F808E000F21C811D4BBC681A689142D0
:1050D00088BF19601B4B1A689142626888BF1960CB
:1050E00022F003029542A2EB050301D80F2B04DC4A
:1050F000304600F02DF9002438E7621943F001032F
:1051000045F0010565603046BA60536000F020F953
:105110000834204603B0BDE8F08F142B71D9542B0E
:1051200000F2A480280B00F16F0E4FEA4E036E30A0
:1051300076E600BF44040020540A0020580A0020EC
:10514000500A00204C0A0020500800205A0A042A65
:105150005ED9142A00F2B38002F15C0149005B328F
:1051600007EB810C57F82110DFF8DC81ACF1080C5B
:105170008C4500F088804A6822F00302934202D2F4
:1051800089688C45F7D1D1F80CC07A68C4F80CC096
:10519000A160CCF80840CC6088E6631942F00107B2
:1051A00045F00105656030464B610B61C3F80CE0CA
:1051B000C3F808E05F609A50083400F0C9F8D5E6FB
:1051C0004A6873E608F1010818F0030F0CF1080CA7
:1051D0007FF47FAE30E0DC68A34208BF02303FF4CA
:1051E00035AEB3E60B440C465A68C96854F8085FFC
:1051F00042F001025A603046E9608D6000F0A8F884
:10520000B4E603F15C0E03F15B004FEA4E0307E6E0
:105210009A0902F1390149003832A1E7BC424A4BF0
:105220003FF400AF9C68626822F003025AE759F825
:105230000839994540F0828010F0030F00F1FF30EB
:10524000F5D17B6823EA04037B6064009C423FF64F
:10525000BDAE002C3FF4BAAE1C4240467FF435AEE2
:1052600064001C4200F10400FAD02EE6B3F5AA7FD8
:1052700018D8E80B00F1780E4FEA4E037730CFE5EF
:105280004FF48051EBE60121D8F80430921001FA76
:1052900002F21A43C8F80420614677E70123CBF8ED
:1052A000043025E740F25452934220D8A80C00F174
:1052B0007D0E4FEA4E037C30B2E51032A4E6542A4C
:1052C00026D81A0B02F16F0149006E3248E7BC681C
:1052D000626822F0030205E7CAF30B0000287FF49E
:1052E000A8AE4244BB6842F001025A60ECE6FE23DD
:1052F0004FF07F0E7E2093E501224FF00009C1E6BA
:1053000004F10801304600F095FCD9F80010DBE606
:10531000B2F5AA7F05D8DA0B02F17801490077329D
:105320001EE740F254518A4205D89A0C02F17D01E1
:1053300049007C3214E7FE217E2211E77B6884E776
:10534000E808431C5B00F8E544040020704700BFF8
:10535000704700BFC36C70B505460C464BB153F89F
:10536000240080B1026843F8242000230361C36055
:1053700070BD2122042100F0DFFBE8640346002811
:10538000EDD1002070BD012101FA04F6721D2846FE
:10539000920000F0D1FB0028F3D044608660E4E77F
:1053A00031B1C36C4A6853F82200086043F82210F8
:1053B000704700BFF0B50C6983B00D46064601F199
:1053C000140E0027DEF8000081B202FB01310B0C45
:1053D000000C02FB003389B2013701EB0341BC42F0
:1053E0004EF8041B4FEA1343ECDC3BB1AA6894422D
:1053F00007DA05EB8402013453612C61284603B0BF
:10540000F0BD6968019301313046FFF7A3FF2A69B7
:10541000023205F10C01074692000C30FAF790FFBA
:10542000F26C6968019B52F82100286042F8215013
:105430003D46DEE7030C1B04B3B90004102310F053
:105440007F4F04BF0002083310F0704F04BF00010B
:10545000043310F0404F04BF80000233002807DB04
:10546000420003D4202070470023E8E7581C70470F
:1054700018467047036813F0070207D0D90720D4F5
:105480009A0720D49B0803600220704799B209B99B
:105490001B0C102213F0FF0F04BF1B0A0832190760
:1054A00004BF1B090432990704BF9B080232D907C5
:1054B00004D45B0801D120207047013203601046FC
:1054C0007047002070475B0803600120704700BFF1
:1054D00010B50C460121FFF73DFF01224461026136
:1054E00010BD00BF2DE9F04F0D691769BD4283B0B3
:1054F0000C46164604DA2A4634463D460E46174602
:10550000A368616805EB07089845C8BF0131FFF73C
:1055100021FF00F1140C0CEB8809CC45009005D25A
:105520006346002143F8041B9945FBD806F1140299
:1055300002EB870A04F11403524503EB850E54D2A3
:10554000CDF80490994652F8043B1FFA83FBBBF157
:10555000000F20D000204F466646054600E01E465C
:1055600057F8044B3068A1B283B20BFB0131240C15
:10557000000C4B190BFB040000EB134099B23346AF
:1055800041EA0041BE454FEA104543F8041BE6D806
:10559000756052F8043C5FEA134B20D0DCF8003011
:1055A000674618464D46002100E037462C88000C1F
:1055B0000BFB040001449CB23E4644EA014346F81A
:1055C000043B786855F8044B83B2240C0BFB04347D
:1055D00004EB1143AE454FEA1341E6D87B60924598
:1055E0000CF1040CAFD8DDF80490B8F1000F0BDD1E
:1055F00059F8043CA9F104091BB105E059F8043D30
:1056000013B9B8F10108F9D10098C0F8108003B0BF
:10561000BDE8F08F12F003032DE9F0411446074670
:105620002ED10E46A4101CD0BD6C95B3E3074FF0ED
:10563000000806D4641014D02868A8B10546E30712
:10564000F8D52A4631463846FFF74CFFB6B17268A6
:10565000FB6C641053F82210316043F82260064658
:10566000EAD13046BDE8F0812A4629463846FFF7A0
:1056700039FF2860C0F800800546E0E70646D9E714
:105680005A1E0B4D002355F82220FFF793FE0646C5
:10569000C8E701213846FFF75DFE40F27121012283
:1056A0000023416102610546B8640360BEE700BFA4
:1056B000F86500082DE9F04791460A698B684FEAC2
:1056C000691404EB020808F101059D420E4682466A
:1056D000496804DD5B009D4201F10101FADC50469E
:1056E000FFF738FE002C00F1140238DD02EB8403D2
:1056F000002142F8041B9342FBD1346906F11401E6
:1057000019F01F0901EB840E21D0C9F120020024F9
:105710000F6807FA09FC4CEA04049C4643F8044B62
:1057200051F8044B8E4524FA02F4F1D8CCF8044029
:105730000CB108F10205DAF84C307268013D53F8FB
:1057400022100561316043F82260BDE8F087043B18
:1057500051F8042B43F8042F8E45F9D8EBE7134694
:10576000CBE700BF02690B69D21A12D19B0014303B
:105770001431194410B4034401E098420BD253F899
:10578000044D51F8042D9442F7D007D3012010BCEA
:10579000704710467047002010BC70474FF0FF3034
:1057A000F5E700BF2DE9F8430B690F4611695B1A55
:1057B000002B904617D1890007F1140208F1140557
:1057C0005318294401E09A425ED253F8046D51F80F
:1057D000044DA642F7D060D23B46144647464FF0F0
:1057E0000109984606E05DDB07F1140502F1140497
:1057F0004FF000097968FFF7ADFDD8F810303E6929
:10580000C0F80C9004EB830CA64605EB860700F16C
:10581000140400235EF8041B55F8048B8AB213FAB3
:1058200088F3090C9A1AC1EB184303EB224392B296
:1058300042EA0342F44544F8042B4FEA2343E9D8F3
:10584000AF4217D9A446294651F804EB13FA8EF259
:10585000131403EB1E4392B242EA03428F424CF808
:10586000042B4FEA2343EFD8ED433D4425F00305D5
:1058700004352C44043C22B954F8043D013E002B6D
:10588000FAD00661BDE8F8830021FFF763FD01222D
:10589000002302614361BDE8F8832C464FF0000904
:1058A0001546A7E73B4607F1140408F114054746DF
:1058B0004FF0010998469DE72DE9F04182B00121A2
:1058C0001C46C3F30A571546089EFFF743FDC4F371
:1058D000130480460FB144F4801401941DB302A850
:1058E00040F8085DFFF7C6FD002834D19DE80C00A4
:1058F000C8F81420002B0CBF01210221C8F8183071
:10590000C8F81010DFB908EB8103A0F23240306014
:105910001869FFF78FFD099BC0EB411018604046E6
:1059200002B0BDE8F08101A8FFF7A4FD019BC8F813
:10593000143001212030C8F81010002FE3D0099B4B
:10594000A7F233470744C0F135003760186040467E
:1059500002B0BDE8F0819DE80C00C0F1200103FA1F
:1059600001F10A43C3400193C8F81420C2E700BF05
:1059700038B5074C002305460846236000F0BAFC02
:10598000431C00D038BD2368002BFBD02B6038BDF2
:10599000840A00202DE9F04F936883B09046002BD5
:1059A00072D083464FF00009166808688B680D4670
:1059B0004C46002C45D09C421F469A4646D3AB89A4
:1059C00013F4906F2DD06F69296907EB4707C1EB7E
:1059D000000A07EBD777601C7F105044B8423A4664
:1059E00084BF07463A465B0533D511465846FFF754
:1059F000F5F9002837D0524629690190FAF7A0FC42
:105A0000AA89019B22F4906242F08002AA81CAEB2B
:105A1000070203EB0A006F612B612860AA6027462A
:105A2000A2465246494600F003FAD8F80820AB686F
:105A30002868DB1B5044141BAB602860C8F8084082
:105A400014B3D6F8009074680836B2E72746A24629
:105A5000E7E7584600F050FA03460028D7D12969F5
:105A6000584600F0E7F80C23CBF80030AB89002251
:105A700043F040034FF0FF30AB81C8F80820C8F86E
:105A8000042003B0BDE8F08F0020C8F8040003B084
:105A9000BDE8F08F2DE9F047254C2568D5F8484141
:105AA0000646884692469946C4B360681F2817DCAC
:105AB000431C76B104EB80050122C5F888A0D4F818
:105AC000881182401143022EC4F88811C5F808914C
:105AD0001ED00230636044F820800020BDE8F087CB
:105AE000144B03B34FF4C870AFF300800446D0B139
